:100000000C946B010C9488010C9488010C94880169
:100010000C9488010C9488010C9488010C9488013C
:100020000C9488010C9488010C9488010C9488012C
:100030000C9488010C946F090C9488010C9488012D
:100040000C9488010C9488010C9488010C9488010C
:100050000C948801000000000000002F0000000741
:10006000000700147F147F14242A7F2A12C4C810AA
:10007000264636495522500005030000001C224147
:10008000000041221C0014083E081408083E08081D
:1000900000005030001010101010006060000020B0
:1000A000100804023E5149453E00427F4000426133
:1000B0005149462141454B311814127F10274545BF
:1000C00045393C4A494930017109050336494949D6
:1000D00036064949291E0036360000005636000013
:1000E00008142241001414141414004122140802AC
:1000F00001510906324959513E7E1111117E7F4945
:100100004949363E414141227F4141221C7F4949B4
:1001100049417F090909013E4149497A7F08080898
:100120007F00417F41002040413F017F0814224170
:100130007F404040407F020C027F7F0408107F3EDA
:100140004141413E7F090909063E4151215E7F0937
:10015000192946464949493101017F01013F404083
:10016000403F1F2040201F3F4038403F6314081489
:100170006307087008076151494543007F4141000A
:10018000552A552A550041417F00040201020440CE
:1001900040404040000102040020545454787F48FD
:1001A0004444383844444420384444487F38545404
:1001B0005418087E0901020C5252523E7F08040472
:1001C0007800447D40002040443D007F10284400DA
:1001D00000417F40007C041804787C0804047838CF
:1001E000444444387C14141408081414187C7C0803
:1001F0000404084854545420043F4440203C4040E8
:10020000207C1C2040201C3C4030403C44281028CE
:10021000440C5050503C4464544C4473656E736FAE
:1002200072353A2066616C73650073656E736F7228
:10023000353A20747275650073656E736F72343A67
:100240002066616C73650073656E736F72343A205B
:10025000747275650073656E736F72333A206661F0
:100260006C73650073656E736F72333A20747275C8
:10027000650073656E736F72323A2066616C7365E8
:100280000073656E736F72323A2074727565007315
:10029000656E736F72313A2066616C7365007365C9
:1002A0006E736F72313A20747275650025005600C6
:1002B0002C0020563A20004E69657A6E616E6120EE
:1002C0006B6F6D656E64610053544F50003A2000AF
:1002D000506F6D3A200011241FBECFE5D8E0DEBF7D
:1002E000CDBF10E0A0E6B0E0ECEEF7E102C0059073
:1002F0000D92A636B107D9F722E0A6E6B0E001C01C
:100300001D92A438B207E1F70E9444090C94F40B43
:100310000C940000C498613011F4C09A01C0C098D8
:100320008FB9779BFECFC49A089588EF91E0EDE6F0
:10033000F0E0DF019C011D9221503040E1F7109266
:100340006A001092690087EF91E0909368008093B3
:10035000670081E08093660008958F30E0F4673095
:10036000E0F490E001979C01220F331F820F931F4E
:10037000880F991F70E06150710944E5469F900114
:10038000479F300D1124820F931F90936C00809330
:100390006B0080E0089581E0089581E008951F9347
:1003A000CF93DF9320916B0030916C0040916900F6
:1003B00050916A002417350724F430936A00209383
:1003C000690090EE960F9C3508F06CE5813021F5C0
:1003D00020916B0030916C00E62FF0E0B097CF01D8
:1003E000880F991F880F991FE80FF91FEC5AFF4FCC
:1003F000D901A359BF4FC9018E589F4F4491440F53
:100400004D933196A817B907C9F72B5F3F4F30932B
:100410006C0020936B0074C0823009F071C0C90178
:10042000845591094091690050916A00841795079D
:1004300024F490936A008093690099230CF484C09B
:10044000E62FF0E0B097CF01880F991F880F991F12
:10045000E80FF91FEC5AFF4FD901A65EBF4FC90143
:100460008C5D9F4F18E14491440F542F5470652FB9
:10047000660F560F550F550F642F6270762F770F4A
:10048000670F660F562B742F7870719F702D112493
:10049000572B42954F70642F6170762F770F670F3F
:1004A000742F7270C72FCC0F7C0F770F762B642FB1
:1004B0006470C62FCC0F6C0FC62FCC0FCC0F672FDC
:1004C0006C2B4870419FC02D1124462F4C2BED0101
:1004D000219758835C93CC5ADF4F488321964883F9
:1004E00031961296A817B90709F0BDCFC9010B962E
:1004F00068EF71E00E948C0B90936C0080936B000E
:1005000080916B0090916C002091670030916800A1
:100510002817390724F49093680080936700FC0142
:10052000E359FF4F1082873F21E0920731F4109288
:100530006C0010926B0082E008C0019690936C00F2
:1005400080936B0080E001C081E0DF91CF911F912B
:1005500008950F931F93CF93DF93082FEB016881CA
:10056000662371F010E0802F0E94CF01813051F09E
:100570001F5FFE01E10FF11D60816111F4CF04C026
:1005800080E003C081E001C080E0DF91CF911F9146
:100590000F9108951F93CF93DF93182FEB01FB0169
:1005A0006491662359F0812F0E94CF01813041F080
:1005B0002196FE0164916111F6CF04C080E003C072
:1005C00081E001C080E0DF91CF911F9108950F93EA
:1005D0001F93CF93DF938091690090916A009923D4
:1005E0002CF410926A001092690009C0883F914073
:1005F00034F087EF91E090936A00809369008091D6
:1006000067009091680099232CF410926800109272
:10061000670009C0883F914034F087EF91E09093E4
:10062000680080936700C0916900D0916A00CE0194
:1006300064E570E00E948C0B162F60E080680E94D9
:100640008A0160E0812F80640E948A0180916700A6
:10065000909168008C179D078CF08E0103591F4FF5
:1006600061E0F80181918F010E948A0121968091B9
:100670006700909168008C179D0794F787EF91E0D1
:1006800090936A008093690010926800109267004E
:1006900010926600DF91CF911F910F910895C69A35
:1006A00087B3816F87BBC698C69A80E58DB9C49A17
:1006B00060E081E20E948A0160E088EC0E948A0189
:1006C00060E086E00E948A0160E083E10E948A0186
:1006D00060E080E20E948A0160E08CE00E948A0172
:1006E00088EF91E090936A0080936900109268000F
:1006F000109267000E9495010E94E702089510BCC5
:1007000087E689B988E98AB986E880BD0895F894B2
:1007100088E0E5E7F2E0ABE6B2E001900D928A9561
:10072000E1F7E0917502F0E088E0DF011D928A9523
:10073000E9F7789408958FB581608FBD8EB5886094
:100740008EBD8FB5806A8FBD8EB585608EBD83B737
:100750008D6683BF85B58F6685BD8FEF87BB81BBF7
:100760008FEF90E09BBD8ABD089580E487B987E84C
:1007700086B9089597B1907E97B997B18770982BF5
:1007800097B9369A349BFECF349A84B195B10895C7
:10079000DF92EF92FF920F931F93CF93DF93CDB72A
:1007A000DEB72E970FB6F894DEBF0FBECDBFF82E82
:1007B0008B01E42ED22E0E94BA038F2D0E94BA0321
:1007C0004AE050E0BE016F5F7F4F0E94B40B4AE0E9
:1007D00050E0BE01655F7F4FC8010E94B40B6D2DD4
:1007E0008E2D0E94AD0160ED72E081E00E94CA0290
:1007F000BE01655F7F4F81E00E94A9026DEC72E04F
:1008000081E00E94CA02BE016F5F7F4F81E00E94BB
:10081000A9020E94E7022E960FB6F894DEBF0FBE23
:10082000CDBFDF91CF911F910F91FF90EF90DF909F
:100830000895AF92BF92CF92DF92EF92FF920F9303
:100840001F93CF93DF93CDB7DEB764970FB6F894BD
:10085000DEBF0FBECDBF80E00E94BA0380E00E94E1
:10086000BA03BC01882777FD8095982F0E949D0AC6
:1008700022E133E840E85FE30E94020A0E946A0A2C
:100880006B017C01CB0164E670E00E948C0B9B0144
:1008900084E6829FB001839F700D1124C6010E94DF
:1008A0008C0B5C014AE050E0BE016F5F7F4FC901D5
:1008B0000E94B40B4AE050E0BE016A5F7F4FC50161
:1008C0000E94B40B4AE050E0BE01655F7F4FC60155
:1008D0000E94B40B64E081E00E94AD0162EB72E023
:1008E00081E00E94CA02BE016F5F7F4F81E00E94DB
:1008F000A90260EB72E081E00E94CA02BE016A5F59
:100900007F4F81E00E94A9026EEA72E081E00E94BE
:10091000CA0286E9C81682E0D806D4F08BE4C8166D
:1009200083E0D806C4F486E9C81A82E0D80AB60182
:10093000882777FD8095982F0E949D0A2FED3FE430
:100940004DE05FE30E94290B0E946A0ACB0105C0BB
:1009500080E090E002C084E690E04AE050E0BE0112
:10096000605F7F4F0E94B40B62E082E00E94AD01A5
:10097000BE01605F7F4F82E00E94A9026CEA72E0D4
:1009800082E00E94CA020E94E70264960FB6F894C1
:10099000DEBF0FBECDBFDF91CF911F910F91FF90B2
:1009A000EF90DF90CF90BF90AF9008958FEF83BD11
:1009B0008CBFA99AAA9AA898AB9808958FEF83BD87
:1009C0008CBFA89AAB9AA998AA9808958FEF83BD77
:1009D0008CBFA99AA898AA98AB9808958FEF83BD69
:1009E0008AE58CBFA99AAA9AA898AB9808958FEF28
:1009F00083BD8CBFAA9AA898A998AB9808958AE558
:100A000083BD8FEF8CBFA99AAA9AA898AB98089536
:100A10008DEF83BD8EEF8CBFA99AAB9AA898AA9848
:100A200008958FEF83BD8CBFA89AAA9AA998AB9816
:100A300008958FEF83BD8CBFA898A998AA98AB980A
:100A400008950E949B0384E190E09BBD8ABD0895B8
:100A50000E949B0382E290E09BBD8ABD08950E94A4
:100A60009B0387E090E09BBD8ABD089581E00E94D2
:100A7000BA038739910518F01092690203C081E02A
:100A80008093690282E00E94BA038739910518F0C9
:100A90001092680203C081E08093680283E00E94A4
:100AA000BA03843B914018F01092670203C081E0C2
:100AB0008093670284E00E94BA03833D910518F099
:100AC0001092660203C081E08093660285E00E9476
:100AD000BA038B3A910518F010926502089581E0EF
:100AE00080936502089580916902882399F080912E
:100AF0006802882379F080916702882359F08091F9
:100B00006602882339F080916502882319F00E94DB
:100B10001905089580916902811104C080916802CD
:100B2000882319F00E94E6040895809166028111DD
:100B300004C080916502882319F00E94F70408958B
:100B400080916702882319F00E94D60408950E94BC
:100B5000D60408950E9436050E94730508950E94E8
:100B600095010E94360580916902882351F061E069
:100B700081E00E94AD016EE972E081E00E94CA024C
:100B80000DC080916902811109C061E081E00E947D
:100B9000AD016FE872E081E00E94CA0280916802B4
:100BA000882351F062E081E00E94AD0161E872E0CB
:100BB00081E00E94CA020DC080916802811109C0C3
:100BC00062E081E00E94AD0162E772E081E00E9494
:100BD000CA0280916702882351F063E081E00E949D
:100BE000AD0164E672E081E00E94CA020DC080910E
:100BF0006702811109C063E081E00E94AD0165E5F3
:100C000072E081E00E94CA0280916602882351F05E
:100C100064E081E00E94AD0167E472E081E00E943F
:100C2000CA020DC080916602811109C064E081E0B2
:100C30000E94AD0168E372E081E00E94CA028091E7
:100C40006502882351F065E081E00E94AD016AE20F
:100C500072E081E00E94CA020DC08091650281119C
:100C600009C065E081E00E94AD016BE172E081E0C6
:100C70000E94CA020E94E7022FEF83ED90E3215009
:100C800080409040E1F700C000000895A49A0895C4
:100C9000AC9A85E38A95F1F70000AC9808959D9988
:100CA00016C081E090E0A0E0B0E09D990BC00196F5
:100CB000A11DB11D803C27E2920729E0A207B105E2
:100CC000A1F73DC0803C9742A940B105D9F11FBCB6
:100CD0008EB585608EBD1DBC1CBC9D9B20C08CB597
:100CE0009DB581369A4ED8F481E090E0A0E0B0E066
:100CF0009D9B10C02CB53DB521363A4E58F4019657
:100D0000A11DB11D803C27E2920729E0A207B10591
:100D100079F71BC0803C9742A940B105C9F08CB55A
:100D20009DB5A0E0B0E01EBC81362AEE9207A10579
:100D3000B10588F4B695A7959795879508958FEF97
:100D40009FEF08958FEF9FEF08958EEF9FEF089527
:100D50008EEF9FEF08958EEF9FEF08950E94460655
:100D60000E9448060E944F069093800280937F0263
:100D7000BC0180E090E00E949B0A9B01AC010E94B4
:100D80009E090E946A0ACB0108950F931F93CF9387
:100D9000DF9300D000D01F92CDB7DEB70E94AE0621
:100DA0000E94AE068C014AE050E0BE016F5F7F4FAB
:100DB0000E94B40B65E082E00E94AD01BE016F5F4E
:100DC0007F4F81E00E94A90263E670E081E00E940B
:100DD000A9020E94E7020E9421052FEF81EE94E014
:100DE000215080409040E1F700C00000053111051E
:100DF00064F00E94D6042FEF87E893E121508040F1
:100E00009040E1F700C0000044C00E9419052FEF98
:100E100089E79FE3215080409040E1F700C0000047
:100E20000E9428052FEF83ED90E3215080409040F1
:100E3000E1F700C000000E94AE068C010E942F0561
:100E40002FEF83ED90E3215080409040E1F700C008
:100E500000000E94AE068017910774F40E942105DD
:100E60000E94E6042FEF81E093E5215080409040FE
:100E7000E1F700C000000DC00E9421050E94F704A8
:100E80002FEF81E093E5215080409040E1F700C0D2
:100E900000000F900F900F900F900F90DF91CF9167
:100EA0001F910F910895CF93DF9300D000D01F9230
:100EB000CDB7DEB70E94AE064AE050E0BE016F5FDC
:100EC0007F4F0E94B40B65E082E00E94AD01BE013D
:100ED0006F5F7F4F81E00E94A90263E670E081E0CE
:100EE0000E94A9020E94E7020F900F900F900F90AE
:100EF0000F90DF91CF9108950F931F93CF93DF93BE
:100F000000D000D01F92CDB7DEB780916B0284373E
:100F100039F0853709F458C1893609F09EC13FC0C0
:100F200080916C02863619F40E94D604A3C1809188
:100F30006C02823619F40E94DE049CC180916C021E
:100F40008C3619F40E94E60495C180916C028237B8
:100F500019F40E94F7048EC180916C02893719F44C
:100F60000E94080587C180916C02843719F40E94A1
:100F7000110580C180916C02833719F40E94190514
:100F800079C180916C028A3719F40E94EE0472C113
:100F900080916C02833619F40E94FF046BC180912A
:100FA0006C028F36F9F481E090E090938202809396
:100FB00081028091810290918202019709F004C11F
:100FC0000E9453072FEF85EA9EE021508040904019
:100FD000E1F700C0000080918102909182020197A8
:100FE00079F3F2C080916C028C36C1F481E090E01C
:100FF000909382028093810280918102909182027B
:10100000019709F0E1C00E94AF050E94210580917F
:101010008102909182020197B1F3D6C080916C0257
:101020008837B1F481E090E090938202809381024E
:101030008091810290918202019709F0C5C00E94BF
:10104000AA0580918102909182020197C1F3BCC0F0
:1010500080916C028E3609F076C081E090E090932A
:101060008202809381028091810290918202019795
:1010700009F0AAC021E030E041E050E061E070E01A
:1010800081E090E00E94C8032FEF89EF90E02150AB
:1010900080409040E1F700C0000022E030E041E0F5
:1010A00050E062E070E082E090E00E94C8032FE729
:1010B0008AE691E0215080409040E1F700C00000B6
:1010C00023E030E041E050E063E070E083E090E056
:1010D0000E94C8032FEF89EF90E02150804090409C
:1010E000E1F700C0000024E030E041E050E064E0BF
:1010F00070E084E090E00E94C8032FEF89EF90E059
:10110000215080409040E1F700C0000025E030E031
:1011100041E050E065E070E085E090E00E94C803A7
:101120002FEF81EE94E0215080409040E1F700C025
:1011300000000E94950180918102909182020197A6
:1011400009F498CF41C080916C028236A9F481E005
:1011500090E090938202809381028091810290912D
:101160008202019789F50E94C506809181029091C3
:1011700082020197C1F328C080916C028337A9F4E1
:1011800081E090E0909382028093810280918102BD
:10119000909182020197C1F40E94530780918102CD
:1011A000909182020197C1F30FC00E9419050E941D
:1011B000950161E080E00E94AD0168EC72E082E0A0
:1011C0000E94CA020E94E70280916C02833619F4E1
:1011D0000E9421054FC080916C028C3619F40E9448
:1011E000280548C080916C02823719F40E942F05AF
:1011F00041C080916C0220916D0290E0C0978C01FB
:10120000000F111F880F991F880F991F880F991FB2
:10121000080F191F30E020533109020F131F4AE055
:1012200050E0BE016F5F7F4FC8010E94B40B65E0C4
:1012300082E00E94AD01BE016F5F7F4F81E00E949E
:10124000A90263E670E081E00E94A9020E94E70221
:101250000E949B031BBD0ABD0DC00E94950161E069
:1012600080E00E94AD0167EB72E081E00E94CA025B
:101270000E94E7020F900F900F900F900F90DF9158
:10128000CF911F910F9108950E94B5030E949B0377
:101290000E947F030E944F0380E48ABB8FEF82BBD2
:1012A0000E94E70278940E949B0384E190E09BBD3A
:1012B0008ABD2FEF87EA91E6215080409040E1F708
:1012C00000C000000E941904809183028130E1F780
:1012D0000E9487030E947C0710928302F5CF1F9221
:1012E0000F920FB60F9211248F93EF93FF93E0911B
:1012F0006A02F0E08CB1EB58FD4F8083E0916A0206
:10130000F0E0EB58FD4F80818A3051F41092820258
:101310001092810281E08093830210926A0205C0DC
:1013200080916A028F5F80936A02FF91EF918F91A3
:101330000F900FBE0F901F9018955058BB27AA27EB
:101340000ED04DC13ED130F043D120F031F49F3F5B
:1013500011F41EF433C10EF4E095E7FB29C1E92F27
:101360004FD180F3BA17620773078407950718F007
:1013700071F49EF567C10EF4E0950B2EBA2FA02DE7
:101380000B01B90190010C01CA01A0011124FF2732
:10139000591B99F0593F50F4503E68F11A16F0402D
:1013A000A22F232F342F4427585FF3CF469537952C
:1013B0002795A795F0405395C9F77EF41F16BA0BF1
:1013C000620B730B840BBAF09150A1F0FF0FBB1F9F
:1013D000661F771F881FC2F70EC0BA0F621F731FE8
:1013E000841F48F4879577956795B795F7959E3F45
:1013F00008F0B3CF9395880F08F09927EE0F9795D3
:10140000879508950CD0EBC0E3D040F0DAD030F0EF
:1014100021F45F3F19F0CCC0511115C1CFC0F0D0FD
:1014200098F39923C9F35523B1F3951B550BBB27AB
:10143000AA2762177307840738F09F5F5F4F220F58
:10144000331F441FAA1FA9F333D00E2E3AF0E0E851
:1014500030D091505040E695001CCAF729D0FE2F9D
:1014600027D0660F771F881FBB1F2617370748072F
:10147000AB07B0E809F0BB0B802DBF01FF279358E5
:101480005F4F2AF09E3F510568F092C0DCC05F3F7D
:10149000ECF3983EDCF3869577956795B795F795CD
:1014A0009F5FC9F7880F911D9695879597F90895C5
:1014B000E1E0660F771F881FBB1F62177307840761
:1014C000BA0720F0621B730B840BBA0BEE1F88F770
:1014D000E095089504D06894B111B5C0089598D0EE
:1014E00088F09F5790F0B92F9927B751A0F0D1F00D
:1014F000660F771F881F991F1AF0BA95C9F712C097
:10150000B13081F09FD0B1E008959CC0672F782F53
:101510008827B85F39F0B93FCCF386957795679502
:10152000B395D9F73EF490958095709561957F4F6E
:101530008F4F9F4F0895E89409C097FB3EF4909514
:101540008095709561957F4F8F4F9F4F9923A9F09C
:10155000F92F96E9BB279395F6958795779567952B
:10156000B795F111F8CFFAF4BB0F11F460FF1BC06F
:101570006F5F7F4F8F4F9F4F16C0882311F096E902
:1015800011C0772321F09EE8872F762F05C06623B0
:1015900071F096E8862F70E060E02AF09A95660F69
:1015A000771F881FDAF7880F9695879597F9089522
:1015B00097F99F6780E870E060E008959FEF80EC06
:1015C000089500240A9416161706180609060895A9
:1015D00000240A9412161306140605060895092E0F
:1015E0000394000C11F4882352F0BB0F40F4BF2B7E
:1015F00011F460FF04C06F5F7F4F8F4F9F4F0895BE
:1016000057FD9058440F551F59F05F3F71F04795B3
:10161000880F97FB991F61F09F3F79F08795089598
:10162000121613061406551FF2CF4695F1DF08C0B7
:10163000161617061806991FF1CF869571056105D4
:1016400008940895E894BB2766277727CB0197F97C
:1016500008950BD0C4CFB5DF28F0BADF18F095237A
:1016600009F0A6CFABCF1124EECFCADFA0F3959F30
:10167000D1F3950F50E0551F629FF001729FBB2779
:10168000F00DB11D639FAA27F00DB11DAA1F649F25
:101690006627B00DA11D661F829F2227B00DA11DD8
:1016A000621F739FB00DA11D621F839FA00D611D5E
:1016B000221F749F3327A00D611D231F849F600D7F
:1016C000211D822F762F6A2F11249F5750408AF0B8
:1016D000E1F088234AF0EE0FFF1FBB1F661F771F44
:1016E000881F91505040A9F79E3F510570F060CF80
:1016F000AACF5F3FECF3983EDCF38695779567952C
:10170000B795F795E7959F5FC1F7FE2B880F911D61
:101710009695879597F9089597FB072E16F40094F0
:1017200007D077FD09D00E94A00B07FC05D03EF43E
:10173000909581959F4F0895709561957F4F08957D
:10174000AA1BBB1B51E107C0AA1FBB1FA617B707E7
:1017500010F0A61BB70B881F991F5A95A9F7809503
:101760009095BC01CD0108954532510520F44230D9
:1017700010F00C94BF0BFB011082CB010895BB2726
:101780004A3031F4992322F4BDE2909581959F4F20
:101790000C94CB0BBB27FB015527AA27880F991F59
:1017A000AA1FA41710F0A41B83955051B9F7A05D90
:1017B000AA3308F0A95DA193009779F7B111B1930D
:1017C0001192CB010C94E40BDC01FC01672F7191A9
:1017D0007723E1F7329704C07C916D937083629117
:0C17E000AE17BF07C8F30895F894FFCFC0
:0617EC000D0A00636D0010
:00000001FF
